{
  "contractName": "Election",
  "abi": [
    {
      "inputs": [],
      "payable": false,
      "stateMutability": "nonpayable",
      "type": "constructor"
    },
    {
      "anonymous": false,
      "inputs": [
        {
          "indexed": true,
          "internalType": "uint256",
          "name": "_candidateId",
          "type": "uint256"
        }
      ],
      "name": "votedEvent",
      "type": "event"
    },
    {
      "constant": true,
      "inputs": [],
      "name": "actvote",
      "outputs": [
        {
          "internalType": "uint256",
          "name": "",
          "type": "uint256"
        }
      ],
      "payable": false,
      "stateMutability": "view",
      "type": "function"
    },
    {
      "constant": true,
      "inputs": [
        {
          "internalType": "uint256",
          "name": "",
          "type": "uint256"
        }
      ],
      "name": "candidates",
      "outputs": [
        {
          "internalType": "uint256",
          "name": "id",
          "type": "uint256"
        },
        {
          "internalType": "string",
          "name": "name",
          "type": "string"
        },
        {
          "internalType": "uint256",
          "name": "voteCount",
          "type": "uint256"
        }
      ],
      "payable": false,
      "stateMutability": "view",
      "type": "function"
    },
    {
      "constant": true,
      "inputs": [],
      "name": "candidatesCount",
      "outputs": [
        {
          "internalType": "uint256",
          "name": "",
          "type": "uint256"
        }
      ],
      "payable": false,
      "stateMutability": "view",
      "type": "function"
    },
    {
      "constant": true,
      "inputs": [],
      "name": "regvote",
      "outputs": [
        {
          "internalType": "uint256",
          "name": "",
          "type": "uint256"
        }
      ],
      "payable": false,
      "stateMutability": "view",
      "type": "function"
    },
    {
      "constant": true,
      "inputs": [],
      "name": "votepercent",
      "outputs": [
        {
          "internalType": "uint256",
          "name": "",
          "type": "uint256"
        }
      ],
      "payable": false,
      "stateMutability": "view",
      "type": "function"
    },
    {
      "constant": true,
      "inputs": [
        {
          "internalType": "address",
          "name": "",
          "type": "address"
        }
      ],
      "name": "voters",
      "outputs": [
        {
          "internalType": "bool",
          "name": "",
          "type": "bool"
        }
      ],
      "payable": false,
      "stateMutability": "view",
      "type": "function"
    },
    {
      "constant": false,
      "inputs": [
        {
          "internalType": "uint256",
          "name": "_candidateId",
          "type": "uint256"
        }
      ],
      "name": "vote",
      "outputs": [],
      "payable": false,
      "stateMutability": "nonpayable",
      "type": "function"
    },
    {
      "constant": false,
      "inputs": [],
      "name": "votepercentage",
      "outputs": [],
      "payable": false,
      "stateMutability": "nonpayable",
      "type": "function"
    },
    {
      "constant": false,
      "inputs": [],
      "name": "stopvoting",
      "outputs": [],
      "payable": false,
      "stateMutability": "nonpayable",
      "type": "function"
    }
  ],
  "bytecode": "0x608060405260016000806101000a81548160ff0219169083151502179055506000600455600660055534801561003457600080fd5b506100796040518060400160405280600381526020017f424a50000000000000000000000000000000000000000000000000000000000081525061010660201b60201c565b6100bd6040518060400160405280600881526020017f436f6e677265737300000000000000000000000000000000000000000000000081525061010660201b60201c565b6101016040518060400160405280600381526020017f416170000000000000000000000000000000000000000000000000000000000081525061010660201b60201c565b610227565b600360008154809291906001019190505550604051806060016040528060035481526020018281526020016000815250600260006003548152602001908152602001600020600082015181600001556020820151816001019080519060200190610171929190610182565b506040820151816002015590505050565b828054600181600116156101000203166002900490600052602060002090601f016020900481019282601f106101c357805160ff19168380011785556101f1565b828001600101855582156101f1579182015b828111156101f05782518255916020019190600101906101d5565b5b5090506101fe9190610202565b5090565b61022491905b80821115610220576000816000905550600101610208565b5090565b90565b610519806102366000396000f3fe608060405234801561001057600080fd5b50600436106100935760003560e01c806340eef1071161006657806340eef107146101a35780636e72fdf2146101c15780638e94e9cb146101df578063a3ec138d146101fd578063fb9b18651461025957610093565b80630121b93f146100985780632bfaceb8146100c65780632d35a8a2146100d05780633477ee2e146100ee575b600080fd5b6100c4600480360360208110156100ae57600080fd5b8101908080359060200190929190505050610263565b005b6100ce6103ac565b005b6100d86103ce565b6040518082815260200191505060405180910390f35b61011a6004803603602081101561010457600080fd5b81019080803590602001909291905050506103d4565b6040518084815260200180602001838152602001828103825284818151815260200191508051906020019080838360005b8381101561016657808201518184015260208101905061014b565b50505050905090810190601f1680156101935780820380516001836020036101000a031916815260200191505b5094505050505060405180910390f35b6101ab610496565b6040518082815260200191505060405180910390f35b6101c961049c565b6040518082815260200191505060405180910390f35b6101e76104a2565b6040518082815260200191505060405180910390f35b61023f6004803603602081101561021357600080fd5b81019080803573ffffffffffffffffffffffffffffffffffffffff1690602001909291905050506104a8565b604051808215151515815260200191505060405180910390f35b6102616104c8565b005b600160003373ffffffffffffffffffffffffffffffffffffffff1673ffffffffffffffffffffffffffffffffffffffff16815260200190815260200160002060009054906101000a900460ff16156102ba57600080fd5b6000809054906101000a900460ff166102d257600080fd5b6000811180156102e457506003548111155b6102ed57600080fd5b60018060003373ffffffffffffffffffffffffffffffffffffffff1673ffffffffffffffffffffffffffffffffffffffff16815260200190815260200160002060006101000a81548160ff0219169083151502179055506004600081548092919060010191905055506002600082815260200190815260200160002060020160008154809291906001019190505550807ffff3c900d938d21d0990d786e819f29b8d05c1ef587b462b939609625b684b1660405160405180910390a250565b606460045402600681905550600554600654816103c557fe5b04600681905550565b60035481565b6002602052806000526040600020600091509050806000015490806001018054600181600116156101000203166002900480601f0160208091040260200160405190810160405280929190818152602001828054600181600116156101000203166002900480156104865780601f1061045b57610100808354040283529160200191610486565b820191906000526020600020905b81548152906001019060200180831161046957829003601f168201915b5050505050908060020154905083565b60065481565b60045481565b60055481565b60016020528060005260406000206000915054906101000a900460ff1681565b60008060006101000a81548160ff02191690831515021790555056fea265627a7a723158208080d95fdc0f51fb77dabe6e1d5c93e22303f648d7cee4f3aa86fafc26b97d0e64736f6c63430005100032",
  "source": "pragma solidity >=0.4.21 <0.7.0;\n\ncontract Election {\n    // Model a Candidate\n    struct Candidate {\n        uint id;\n        string name;\n        uint voteCount;\n    }\n     bool voteprocess =true;\n\n\n    // Store accounts that have voted\n    mapping(address => bool) public voters;\n    // Store Candidates\n    // Fetch Candidate\n    mapping(uint => Candidate) public candidates;\n    // Store Candidates Count\n    uint public candidatesCount;\n    uint public actvote=0;\n    uint public regvote=6;\n    uint public votepercent;\n\n    // voted event\n    event votedEvent (\n        uint indexed _candidateId\n    );\n\n    constructor () public {\n        addCandidate(\"BJP\");\n        addCandidate(\"Congress\");\n        addCandidate(\"Aap\");\n\n    }\n\n    function addCandidate (string memory _name) private {\n        candidatesCount ++;\n        candidates[candidatesCount] = Candidate(candidatesCount, _name, 0);\n    }\n\n    function vote (uint _candidateId) public {\n        // require that they haven't voted before\n        require(!voters[msg.sender]);\n        require(voteprocess);\n        // require a valid candidate\n        require(_candidateId > 0 && _candidateId <= candidatesCount);\n\n        // record that voter has voted\n        voters[msg.sender] = true;\n        //voting percentage\n        actvote++;\n\n        // update candidate vote Count\n        candidates[_candidateId].voteCount ++;\n\n        // trigger voted event\n        emit votedEvent(_candidateId);\n    }\n    function votepercentage() public{\n\n        votepercent = actvote*100;\n        votepercent = votepercent/regvote;\n\n\n    }\n    //initialize voting process and termination\n    function stopvoting() public{\n        voteprocess=false;\n    }\n}",
  "sourcePath": "C:/Users/yashr/Documents/Important/Project/Election-DApp/contracts/Election.sol",
  "compiler": {
    "name": "solc",
    "version": "0.5.16+commit.9c3226ce.Emscripten.clang"
  },
  "schemaVersion": "3.4.1",
  "updatedAt": "2021-06-17T11:11:31.091Z",
  "networkType": "ethereum",
  "devdoc": {
    "methods": {}
  },
  "userdoc": {
    "methods": {}
  }
}